{
  "address": "0x48347DdAB9aC421C62AD79fBaBFF892001FF5A92",
  "abi": [
    {
      "inputs": [],
      "name": "ZamaProtocolUnsupported",
      "type": "error"
    },
    {
      "anonymous": false,
      "inputs": [
        {
          "indexed": true,
          "internalType": "uint256",
          "name": "commentId",
          "type": "uint256"
        },
        {
          "indexed": true,
          "internalType": "uint256",
          "name": "postId",
          "type": "uint256"
        },
        {
          "indexed": true,
          "internalType": "address",
          "name": "author",
          "type": "address"
        },
        {
          "indexed": false,
          "internalType": "uint256",
          "name": "parentCommentId",
          "type": "uint256"
        }
      ],
      "name": "CommentAdded",
      "type": "event"
    },
    {
      "anonymous": false,
      "inputs": [
        {
          "indexed": true,
          "internalType": "uint256",
          "name": "commentId",
          "type": "uint256"
        },
        {
          "indexed": true,
          "internalType": "address",
          "name": "liker",
          "type": "address"
        }
      ],
      "name": "CommentLiked",
      "type": "event"
    },
    {
      "anonymous": false,
      "inputs": [
        {
          "indexed": true,
          "internalType": "uint256",
          "name": "postId",
          "type": "uint256"
        },
        {
          "indexed": true,
          "internalType": "address",
          "name": "author",
          "type": "address"
        },
        {
          "indexed": false,
          "internalType": "string",
          "name": "content",
          "type": "string"
        },
        {
          "indexed": false,
          "internalType": "string",
          "name": "category",
          "type": "string"
        }
      ],
      "name": "PostCreated",
      "type": "event"
    },
    {
      "anonymous": false,
      "inputs": [
        {
          "indexed": true,
          "internalType": "uint256",
          "name": "postId",
          "type": "uint256"
        },
        {
          "indexed": true,
          "internalType": "address",
          "name": "user",
          "type": "address"
        },
        {
          "indexed": false,
          "internalType": "enum EncryptedLike.ReactionType",
          "name": "reactionType",
          "type": "uint8"
        }
      ],
      "name": "ReactionChanged",
      "type": "event"
    },
    {
      "anonymous": false,
      "inputs": [
        {
          "indexed": true,
          "internalType": "uint256",
          "name": "postId",
          "type": "uint256"
        },
        {
          "indexed": true,
          "internalType": "address",
          "name": "user",
          "type": "address"
        }
      ],
      "name": "ReactionRemoved",
      "type": "event"
    },
    {
      "inputs": [
        {
          "internalType": "uint256",
          "name": "postId",
          "type": "uint256"
        },
        {
          "internalType": "uint256",
          "name": "parentCommentId",
          "type": "uint256"
        },
        {
          "internalType": "externalEuint32[]",
          "name": "encryptedContentChunks",
          "type": "bytes32[]"
        },
        {
          "internalType": "bytes",
          "name": "contentProof",
          "type": "bytes"
        },
        {
          "internalType": "externalEuint32",
          "name": "countInputEuint32",
          "type": "bytes32"
        },
        {
          "internalType": "bytes",
          "name": "countInputProof",
          "type": "bytes"
        }
      ],
      "name": "addComment",
      "outputs": [],
      "stateMutability": "nonpayable",
      "type": "function"
    },
    {
      "inputs": [
        {
          "internalType": "uint256",
          "name": "commentId",
          "type": "uint256"
        },
        {
          "internalType": "externalEuint32",
          "name": "inputEuint32",
          "type": "bytes32"
        },
        {
          "internalType": "bytes",
          "name": "inputProof",
          "type": "bytes"
        }
      ],
      "name": "addCommentLike",
      "outputs": [],
      "stateMutability": "nonpayable",
      "type": "function"
    },
    {
      "inputs": [
        {
          "internalType": "uint256",
          "name": "postId",
          "type": "uint256"
        },
        {
          "internalType": "externalEuint32",
          "name": "inputEuint32",
          "type": "bytes32"
        },
        {
          "internalType": "bytes",
          "name": "inputProof",
          "type": "bytes"
        }
      ],
      "name": "addLike",
      "outputs": [],
      "stateMutability": "nonpayable",
      "type": "function"
    },
    {
      "inputs": [
        {
          "internalType": "uint256",
          "name": "postId",
          "type": "uint256"
        },
        {
          "internalType": "enum EncryptedLike.ReactionType",
          "name": "reactionType",
          "type": "uint8"
        },
        {
          "internalType": "externalEuint32",
          "name": "inputEuint32",
          "type": "bytes32"
        },
        {
          "internalType": "bytes",
          "name": "inputProof",
          "type": "bytes"
        }
      ],
      "name": "addReaction",
      "outputs": [],
      "stateMutability": "nonpayable",
      "type": "function"
    },
    {
      "inputs": [
        {
          "internalType": "bytes32",
          "name": "",
          "type": "bytes32"
        }
      ],
      "name": "categoryReactionCounts",
      "outputs": [
        {
          "internalType": "euint32",
          "name": "",
          "type": "bytes32"
        }
      ],
      "stateMutability": "view",
      "type": "function"
    },
    {
      "inputs": [],
      "name": "commentCount",
      "outputs": [
        {
          "internalType": "uint256",
          "name": "",
          "type": "uint256"
        }
      ],
      "stateMutability": "view",
      "type": "function"
    },
    {
      "inputs": [
        {
          "internalType": "uint256",
          "name": "",
          "type": "uint256"
        }
      ],
      "name": "comments",
      "outputs": [
        {
          "internalType": "address",
          "name": "author",
          "type": "address"
        },
        {
          "internalType": "uint256",
          "name": "postId",
          "type": "uint256"
        },
        {
          "internalType": "uint256",
          "name": "parentCommentId",
          "type": "uint256"
        },
        {
          "internalType": "uint256",
          "name": "timestamp",
          "type": "uint256"
        },
        {
          "internalType": "euint32",
          "name": "encryptedLikeCount",
          "type": "bytes32"
        }
      ],
      "stateMutability": "view",
      "type": "function"
    },
    {
      "inputs": [],
      "name": "confidentialProtocolId",
      "outputs": [
        {
          "internalType": "uint256",
          "name": "",
          "type": "uint256"
        }
      ],
      "stateMutability": "view",
      "type": "function"
    },
    {
      "inputs": [
        {
          "internalType": "string",
          "name": "content",
          "type": "string"
        },
        {
          "internalType": "string",
          "name": "category",
          "type": "string"
        },
        {
          "internalType": "string[]",
          "name": "tags",
          "type": "string[]"
        }
      ],
      "name": "createPost",
      "outputs": [
        {
          "internalType": "uint256",
          "name": "",
          "type": "uint256"
        }
      ],
      "stateMutability": "nonpayable",
      "type": "function"
    },
    {
      "inputs": [
        {
          "internalType": "string",
          "name": "category",
          "type": "string"
        }
      ],
      "name": "getCategoryReactionCount",
      "outputs": [
        {
          "internalType": "euint32",
          "name": "",
          "type": "bytes32"
        }
      ],
      "stateMutability": "view",
      "type": "function"
    },
    {
      "inputs": [
        {
          "internalType": "uint256",
          "name": "commentId",
          "type": "uint256"
        }
      ],
      "name": "getComment",
      "outputs": [
        {
          "internalType": "address",
          "name": "author",
          "type": "address"
        },
        {
          "internalType": "uint256",
          "name": "postId",
          "type": "uint256"
        },
        {
          "internalType": "uint256",
          "name": "parentCommentId",
          "type": "uint256"
        },
        {
          "internalType": "uint256",
          "name": "timestamp",
          "type": "uint256"
        }
      ],
      "stateMutability": "view",
      "type": "function"
    },
    {
      "inputs": [
        {
          "internalType": "uint256",
          "name": "commentId",
          "type": "uint256"
        },
        {
          "internalType": "uint256",
          "name": "index",
          "type": "uint256"
        }
      ],
      "name": "getCommentContentChunk",
      "outputs": [
        {
          "internalType": "euint32",
          "name": "",
          "type": "bytes32"
        }
      ],
      "stateMutability": "view",
      "type": "function"
    },
    {
      "inputs": [
        {
          "internalType": "uint256",
          "name": "commentId",
          "type": "uint256"
        }
      ],
      "name": "getCommentContentChunkCount",
      "outputs": [
        {
          "internalType": "uint256",
          "name": "",
          "type": "uint256"
        }
      ],
      "stateMutability": "view",
      "type": "function"
    },
    {
      "inputs": [
        {
          "internalType": "uint256",
          "name": "postId",
          "type": "uint256"
        }
      ],
      "name": "getCommentCount",
      "outputs": [
        {
          "internalType": "euint32",
          "name": "",
          "type": "bytes32"
        }
      ],
      "stateMutability": "view",
      "type": "function"
    },
    {
      "inputs": [],
      "name": "getCommentCount",
      "outputs": [
        {
          "internalType": "uint256",
          "name": "",
          "type": "uint256"
        }
      ],
      "stateMutability": "view",
      "type": "function"
    },
    {
      "inputs": [
        {
          "internalType": "uint256",
          "name": "postId",
          "type": "uint256"
        }
      ],
      "name": "getLikeCount",
      "outputs": [
        {
          "internalType": "euint32",
          "name": "",
          "type": "bytes32"
        }
      ],
      "stateMutability": "view",
      "type": "function"
    },
    {
      "inputs": [
        {
          "internalType": "uint256",
          "name": "postId",
          "type": "uint256"
        }
      ],
      "name": "getPost",
      "outputs": [
        {
          "internalType": "address",
          "name": "author",
          "type": "address"
        },
        {
          "internalType": "string",
          "name": "content",
          "type": "string"
        },
        {
          "internalType": "string",
          "name": "category",
          "type": "string"
        },
        {
          "internalType": "string[]",
          "name": "tags",
          "type": "string[]"
        },
        {
          "internalType": "uint256",
          "name": "timestamp",
          "type": "uint256"
        }
      ],
      "stateMutability": "view",
      "type": "function"
    },
    {
      "inputs": [],
      "name": "getPostCount",
      "outputs": [
        {
          "internalType": "uint256",
          "name": "",
          "type": "uint256"
        }
      ],
      "stateMutability": "view",
      "type": "function"
    },
    {
      "inputs": [
        {
          "internalType": "uint256",
          "name": "postId",
          "type": "uint256"
        },
        {
          "internalType": "enum EncryptedLike.ReactionType",
          "name": "reactionType",
          "type": "uint8"
        }
      ],
      "name": "getReactionCount",
      "outputs": [
        {
          "internalType": "euint32",
          "name": "",
          "type": "bytes32"
        }
      ],
      "stateMutability": "view",
      "type": "function"
    },
    {
      "inputs": [
        {
          "internalType": "address",
          "name": "user",
          "type": "address"
        },
        {
          "internalType": "uint256",
          "name": "postId",
          "type": "uint256"
        }
      ],
      "name": "getUserReaction",
      "outputs": [
        {
          "internalType": "enum EncryptedLike.ReactionType",
          "name": "",
          "type": "uint8"
        }
      ],
      "stateMutability": "view",
      "type": "function"
    },
    {
      "inputs": [
        {
          "internalType": "address",
          "name": "",
          "type": "address"
        },
        {
          "internalType": "uint256",
          "name": "",
          "type": "uint256"
        }
      ],
      "name": "hasUserReacted",
      "outputs": [
        {
          "internalType": "bool",
          "name": "",
          "type": "bool"
        }
      ],
      "stateMutability": "view",
      "type": "function"
    },
    {
      "inputs": [
        {
          "internalType": "uint256",
          "name": "",
          "type": "uint256"
        }
      ],
      "name": "postAuthors",
      "outputs": [
        {
          "internalType": "address",
          "name": "",
          "type": "address"
        }
      ],
      "stateMutability": "view",
      "type": "function"
    },
    {
      "inputs": [],
      "name": "postCount",
      "outputs": [
        {
          "internalType": "uint256",
          "name": "",
          "type": "uint256"
        }
      ],
      "stateMutability": "view",
      "type": "function"
    },
    {
      "inputs": [
        {
          "internalType": "uint256",
          "name": "",
          "type": "uint256"
        }
      ],
      "name": "posts",
      "outputs": [
        {
          "internalType": "address",
          "name": "author",
          "type": "address"
        },
        {
          "internalType": "string",
          "name": "content",
          "type": "string"
        },
        {
          "internalType": "string",
          "name": "category",
          "type": "string"
        },
        {
          "internalType": "euint32",
          "name": "encryptedLikeCount",
          "type": "bytes32"
        },
        {
          "internalType": "euint32",
          "name": "encryptedLoveCount",
          "type": "bytes32"
        },
        {
          "internalType": "euint32",
          "name": "encryptedClapCount",
          "type": "bytes32"
        },
        {
          "internalType": "euint32",
          "name": "encryptedCelebrateCount",
          "type": "bytes32"
        },
        {
          "internalType": "euint32",
          "name": "encryptedIdeaCount",
          "type": "bytes32"
        },
        {
          "internalType": "euint32",
          "name": "encryptedCommentCount",
          "type": "bytes32"
        },
        {
          "internalType": "uint256",
          "name": "timestamp",
          "type": "uint256"
        }
      ],
      "stateMutability": "view",
      "type": "function"
    },
    {
      "inputs": [
        {
          "internalType": "uint256",
          "name": "postId",
          "type": "uint256"
        },
        {
          "internalType": "externalEuint32",
          "name": "inputEuint32",
          "type": "bytes32"
        },
        {
          "internalType": "bytes",
          "name": "inputProof",
          "type": "bytes"
        }
      ],
      "name": "removeReaction",
      "outputs": [],
      "stateMutability": "nonpayable",
      "type": "function"
    },
    {
      "inputs": [
        {
          "internalType": "address",
          "name": "",
          "type": "address"
        },
        {
          "internalType": "uint256",
          "name": "",
          "type": "uint256"
        }
      ],
      "name": "userReactions",
      "outputs": [
        {
          "internalType": "enum EncryptedLike.ReactionType",
          "name": "",
          "type": "uint8"
        }
      ],
      "stateMutability": "view",
      "type": "function"
    }
  ],
  "transactionHash": "0xdd525862d574adb26512e84fbd1e2b8a23083de43dd5d65b6f95aa2ee19d5da1",
  "args": [],
  "numDeployments": 5,
  "solcInputHash": "14251418e7ac1e481775e7c06cfa4e32",
  "bytecode": "0x6080604052346101255761001161015c565b50466001036100ee5761002261015c565b5061002b610129565b5f81525f60208201525f60408201525b80517f9e7b61f58c47dc699ac88507c4f5bb9f121c03808c5676a8078fe583e464970080546001600160a01b039283166001600160a01b03199182161790915560208301517f9e7b61f58c47dc699ac88507c4f5bb9f121c03808c5676a8078fe583e464970180549184169183169190911790556040928301517f9e7b61f58c47dc699ac88507c4f5bb9f121c03808c5676a8078fe583e464970280549190931691161790555161243d90816101d68239f35b4662aa36a70361010557610100610176565b61003b565b46617a690361011657610100610176565b6373cac13b60e01b5f5260045ffd5b5f80fd5b60405190606082016001600160401b0381118382101761014857604052565b634e487b7160e01b5f52604160045260245ffd5b610164610129565b905f82525f60208301525f6040830152565b61017e61015c565b50610187610129565b73f0ffdc93b7e186bc2f8cb3daa75d86d1930a433d81527392c920834ec8941d2c77d188936e1f7a6f49c127602082015273be0e383937d564d7ff0bc3b46c51f0bf8d5c311a60408201529056fe60806040526004361015610011575f80fd5b5f5f3560e01c80630800e300146119cd578063086662f2146119905780630b1e7f83146118ce5780630d4bfb4f1461189557806316e31ea31461187857806317906c2e1461185b5780632a691e0b146117b25780633be5e2e41461158c57806340731c24146113d857806345ff20de146113ba5780634ef576ad146113765780635aa78b7b146110235780637fcf98ce14610ff957806385f1c58414610fc65780638927b03014610fab5780638ebb4c1514610f4b57806393febcd8146106425780639f0cc5fc14610dde578063b01c7a4d14610771578063b8c88918146106a4578063bcc9540714610686578063c0d2c8a114610642578063d3b57d46146101f9578063d610a97d146101a8578063d6b3d4971461016f5763f142c20d14610138575f80fd5b3461016c57604036600319011261016c5760243590600582101561016c57602061016483600435611e79565b604051908152f35b80fd5b503461016c57602036600319011261016c57600160406020926004356101986003548210611d34565b8152828452200154604051908152f35b503461016c57602036600319011261016c5760043567ffffffffffffffff81116101f5576020916101df6040923690600401611cfe565b8381519101208152600783522054604051908152f35b5080fd5b503461016c5760c036600319011261016c576004356024359160443567ffffffffffffffff81116101f557366023820112156101f55780600401359067ffffffffffffffff821161063e573660248360051b8301011161063e5760643567ffffffffffffffff811161063a57610273903690600401611c40565b909560a43567ffffffffffffffff811161063657610295903690600401611c40565b9690946102a56002548310611d80565b826105e8575b600354906102b882611e41565b60035580156105a3576102ca81611d1c565b966102d86040519889611b5a565b818852601f196102e783611d1c565b013660208a0137885b82811015610344578b61031861030c8360051b928a3691611cb8565b6024838c010135611f13565b908a51831015610330578a01602001526001016102f0565b634e487b7160e01b8c52603260045260248cfd5b5088955061036061035889928c3691611cb8565b608435611f13565b90610369612354565b876040519261037784611b0d565b338452602084019081526040840188815260608501918a83526001600160a01b03806040608089019642885260a08a019889528c81526001602052209751161673ffffffffffffffffffffffffffffffffffffffff198754161786556001860190519081519167ffffffffffffffff831161058f5768010000000000000000831161058f578154838355838f828210610565575b505050602001908d5260208d208d5b8381106105515750509151600287015550505160038401555160048301555160059091015583865260208690526040862060090154610459919061220a565b838652856020526009604087200155845b8181106104e75750508184528360205261048b3060096040872001546123b5565b818452836020526104b86009604086200154838652856020526001600160a01b03604087205416906123b5565b6040519283527ff7e24aa853f7b615ea67c286e121afc984a66b0125a870010b29b6e7f22cac8260203394a480f35b60019083875281602052610510610503828460408b2001611dcc565b3091549060031b1c6123b5565b8387528160205261054b610529828460408b2001611dcc565b90549060031b1c868952886020526001600160a01b0360408a205416906123b5565b0161046a565b60019060208451940193818401550161041a565b8481526020812092830192860191505b8282106105845785915061040b565b81556001018f610575565b634e487b7160e01b8e52604160045260248efd5b60405162461bcd60e51b815260206004820152600d60248201527f456d70747920636f6e74656e74000000000000000000000000000000000000006044820152606490fd5b60035483106102ab5760405162461bcd60e51b815260206004820152601d60248201527f506172656e7420636f6d6d656e7420646f6573206e6f742065786973740000006044820152606490fd5b8580fd5b8380fd5b8280fd5b503461016c5760ff6040610682926001600160a01b0361066136611aaf565b91168252600560205282822090825260205220541660405191829182611ca5565b0390f35b503461016c578060031936011261016c576020600254604051908152f35b503461016c576106d46106ef6106da6106bc36611c6e565b6106cd600397939497548810611d34565b3691611cb8565b90611f13565b8284526001602052600560408520015461220a565b818352600160205260056040842001558082526001602052610719600560408420015430906123b5565b8082526001602052610748600560408420015482845260016020526001600160a01b03604085205416906123b5565b33907ff130ed2efa2f29aaeb0d5dd95532c1cfeef37afc311d3b52ca7666dadb6602a28380a380f35b503461016c57606036600319011261016c5760043567ffffffffffffffff81116101f5576107a3903690600401611cfe565b60243567ffffffffffffffff811161063e576107c3903690600401611cfe565b6044359167ffffffffffffffff831161063a573660238401121561063a578260040135926107f084611d1c565b936107fe6040519586611b5a565b80855260051b810160240160208501368211610dda5760248301905b828210610da657505050506002549261083284611e41565b60025561083d612354565b906040519061084b82611b3d565b33825260208201928484526040830190868252606084019283528060808501528060a08501528060c08501528060e085015280610100850152610120840152426101408401528688528760205260408820936001600160a01b03808551161673ffffffffffffffffffffffffffffffffffffffff198654161785555180519067ffffffffffffffff8211610cf7576108e66001870154611ad5565b601f8111610d73575b50602090601f8311600114610d0b5761091f92918b9183610b11575b50508160011b915f199060031b1c19161790565b60018501555b518051600285019167ffffffffffffffff8211610cf7576109468354611ad5565b601f8111610cc7575b50602090601f8311600114610c655761097e92918b9183610b115750508160011b915f199060031b1c19161790565b90555b51805190680100000000000000008211610c51576003840154826003860155808310610bd3575b506020016003840188526020882088915b838310610aa15750505050849260406020977f5475621b07408f75d49c828caa5aeacb3a5e98d3497e75730dc184677504401c94600a610140866080610a88980151600485015560a0810151600585015560c0810151600685015560e0810151600785015561010081015160088501556101208101516009850155015191015585815260048952206001600160a01b03331673ffffffffffffffffffffffffffffffffffffffff19825416179055610a7133856122a2565b610a96604051928392604084526040840190611c1c565b828103898401523396611c1c565b0390a3604051908152f35b805180519067ffffffffffffffff8211610bbf578b610ac08554611ad5565b601f8111610b84575b50506020908c601f8411600114610b1c578360019592946020948796610b029492610b115750508160011b915f199060031b1c19161790565b85555b019201920191906109b9565b015190505f8061090b565b9190601f198416868452828420935b818110610b6c5750936020936001969387969383889510610b54575b505050811b018555610b05565b01515f1960f88460031b161c191690555f8080610b47565b92936020600181928786015181550195019301610b2b565b60208287610bae945220601f850160051c81019160208610610bb5575b601f0160051c0190611e63565b8b5f610ac9565b9091508190610ba1565b634e487b7160e01b8c52604160045260248cfd5b60038501895260208920908382015b8183018110610bf25750506109a8565b808b610c0060019354611ad5565b80610c0e575b505001610be2565b601f81118414610c255750508b81555b8b5f610c06565b83601f60208486610c40965220920160051c82019101611e63565b808c528b6020812081835555610c1e565b634e487b7160e01b88526041600452602488fd5b838b52818b209190601f1984168c5b818110610caf5750908460019594939210610c97575b505050811b019055610981565b01515f1960f88460031b161c191690555f8080610c8a565b92936020600181928786015181550195019301610c74565b610cf190848c5260208c20601f850160051c81019160208610610bb557601f0160051c0190611e63565b5f61094f565b634e487b7160e01b8a52604160045260248afd5b600187018b52818b209190601f1984168c5b818110610d5b5750908460019594939210610d43575b505050811b016001850155610925565b01515f1960f88460031b161c191690555f8080610d33565b92936020600181928786015181550195019301610d1d565b610da090600188018c5260208c20601f850160051c81019160208610610bb557601f0160051c0190611e63565b5f6108ef565b813567ffffffffffffffff8111610dd657602091610dcb839260243691890101611cfe565b81520191019061081a565b8880fd5b8680fd5b503461016c57610ded36611c6e565b9190610dfc6002548510611d80565b33855260066020526040852084865260205260ff60408620541615610f0657610e50916106d4610e489233885260056020526040882087895260205260ff604089205416953691611cb8565b80928461203f565b81835282602052610e6660026040852001611b7c565b805180610ed6575b5050503382526005602052604082208183526020526040822060ff1981541690553382526006602052604082208183526020526040822060ff19815416905533907f477b7b4013dbb289d905f28d032447aa7b6e3b5d20a6c35b77386383c17c3a758380a380f35b6020610ef19201209182855260076020526040852054612143565b908352600760205260408320555f8080610e6e565b60405162461bcd60e51b815260206004820152601560248201527f4e6f207265616374696f6e20746f2072656d6f766500000000000000000000006044820152606490fd5b503461016c57602036600319011261016c57604060a09160043581526001602052206001600160a01b0381541690600281015490600381015460056004830154920154926040519485526020850152604084015260608301526080820152f35b503461016c578060031936011261016c576020610164612325565b503461016c57602036600319011261016c576001600160a01b036040602092600435815260048452205416604051908152f35b503461016c57602036600319011261016c5760406020916004358152600783522054604051908152f35b503461016c57608036600319011261016c57602435600435600582101561063e5760643567ffffffffffffffff811161063a5761109261106a61108a923690600401611c40565b92906110796002548610611d80565b60ff8616936106cd60058610611df5565b604435611f13565b9033855260066020526040852083865260205260ff6040862054166112fe575b84908461122057838652856020526110d183600460408920015461220a565b8487528660205260046040882001555b338652600560205260408620848752602052604086209161120c5760ff1982541617905533845260066020526040842082855260205260408420600160ff198254161790558184528360205261113c60026040862001611b7c565b8051908161119c575b505050808352826020526111666001600160a01b03604085205416826122a2565b7f403b5d364655ad5d34fca3378b9bcf16e13485bbe54de0a646ac3a73f8e6b77f60405180611196339582611ca5565b0390a380f35b6020012090818552600860205260ff604086205416155f146111e457818552600760205260408520558352600860205260408320600160ff198254161790555b5f8080611145565b6111fa908286526007602052604086205461220a565b908452600760205260408420556111dc565b634e487b7160e01b86526021600452602486fd5b85915060018503611258578386528560205261124383600560408920015461220a565b8487528660205260056040882001555b6110e1565b8591506002850361128f578386528560205261127b83600660408920015461220a565b8487528660205260066040882001556110e1565b859150600385036112c657838652856020526112b283600760408920015461220a565b8487528660205260076040882001556110e1565b859150600319850161125357838652856020526112ea83600860408920015461220a565b8487528660205260086040882001556110e1565b3385526005602052604085208386526020526113228260ff6040882054168561203f565b8285528460205261133860026040872001611b7c565b80519081611348575b50506110b2565b602001208086526007602052611362836040882054612143565b908652600760205260408620555f80611341565b503461016c57602036600319011261016c576004356113986002548210611d80565b6113a26001611df5565b5f525f6020526020600460405f200154604051908152f35b503461016c578060031936011261016c576020600354604051908152f35b503461016c57602036600319011261016c576004356113fa6002548210611d80565b81528060205260408120906040519161141283611b3d565b6001600160a01b03815416835261142b60018201611b7c565b916020840192835261143f60028301611b7c565b9160408501928352600381019283549161145883611d1c565b926114666040519485611b5a565b80845260208401809686526020862086915b83831061156f5750505050906115016001600160a01b03600a61150f948660608c0152600481015460808c0152600581015460a08c0152600681015460c08c0152600781015460e08c015260088101546101008c015260098101546101208c0152015498896101408201525116965191519160405197885260a0602089015260a0880190611c1c565b908682036040880152611c1c565b90848203606086015251908181526020810160208360051b8301019493915b838310611542578680878a60808301520390f35b9091929394602080611560600193601f198682030187528951611c1c565b9701930193019193929061152e565b60016020819261157e85611b7c565b815201920192019190611478565b346117ae576106d46115bc6115a036611c6e565b600254939592936115b2908710611d80565b6106cd6001611df5565b335f52600660205260405f20825f5260205260ff60405f205416611736575b815f525f6020526115f381600460405f20015461220a565b825f525f602052600460405f200155335f52600560205260405f20825f5260205260405f2060ff198154169055335f52600660205260405f20825f5260205260405f20600160ff19825416179055815f525f602052611657600260405f2001611b7c565b805190816116c6575b505050805f525f6020526116816001600160a01b0360405f205416826122a2565b6040515f81523391907f403b5d364655ad5d34fca3378b9bcf16e13485bbe54de0a646ac3a73f8e6b77f90602090a3005b634e487b7160e01b5f52602160045260245ffd5b6020012090815f52600860205260ff60405f205416155f1461170e57815f52600760205260405f20555f52600860205260405f20600160ff198254161790555b818080611660565b61172490825f52600760205260405f205461220a565b905f52600760205260405f2055611706565b335f52600560205260405f20825f5260205261175a8160ff60405f2054168461203f565b815f525f602052611770600260405f2001611b7c565b80519081611780575b50506115db565b60200120805f52600760205261179a8260405f2054612143565b905f52600760205260405f20558280611779565b5f80fd5b346117ae5760403660031901126117ae57600435602435906117d76003548210611d34565b805f526001602052600160405f20015482101561181657602091611807915f5260018352600160405f2001611dcc565b90549060031b1c604051908152f35b60405162461bcd60e51b815260206004820152601960248201527f4368756e6b20696e646578206f7574206f6620626f756e6473000000000000006044820152606490fd5b346117ae575f3660031901126117ae576020600254604051908152f35b346117ae575f3660031901126117ae576020600354604051908152f35b346117ae5760203660031901126117ae576004356118b66002548210611d80565b5f525f6020526020600960405f200154604051908152f35b346117ae5760203660031901126117ae576004355f525f60205260405f206001600160a01b0381541661190360018301611b7c565b9161191060028201611b7c565b60048201549160058101546006820154600783015490600884015492611966600a6009870154960154966119586040519b8c9b8c5261014060208d01526101408c0190611c1c565b908a820360408c0152611c1c565b966060890152608088015260a087015260c086015260e08501526101008401526101208301520390f35b346117ae576001600160a01b036119a636611aaf565b91165f52600660205260405f20905f52602052602060ff60405f2054166040519015158152f35b346117ae5760203660031901126117ae576004356119ee6003548210611d34565b5f52600160205260405f20604051611a0581611b0d565b6001600160a01b038254168152600182019160405180602085549182815201945f5260205f20905f5b818110611a9957505050611a46816080950382611b5a565b60208301526002810154918260408201526001600160a01b0360038301549182606082015260056004850154948588840152015460a0820152511692604051938452602084015260408301526060820152f35b8254875260209096019560019283019201611a2e565b60409060031901126117ae576004356001600160a01b03811681036117ae579060243590565b90600182811c92168015611b03575b6020831014611aef57565b634e487b7160e01b5f52602260045260245ffd5b91607f1691611ae4565b60c0810190811067ffffffffffffffff821117611b2957604052565b634e487b7160e01b5f52604160045260245ffd5b610160810190811067ffffffffffffffff821117611b2957604052565b90601f8019910116810190811067ffffffffffffffff821117611b2957604052565b9060405191825f825492611b8f84611ad5565b8084529360018116908115611bfa5750600114611bb6575b50611bb492500383611b5a565b565b90505f9291925260205f20905f915b818310611bde575050906020611bb4928201015f611ba7565b6020919350806001915483858901015201910190918492611bc5565b905060209250611bb494915060ff191682840152151560051b8201015f611ba7565b805180835260209291819084018484015e5f828201840152601f01601f1916010190565b9181601f840112156117ae5782359167ffffffffffffffff83116117ae57602083818601950101116117ae57565b60606003198201126117ae5760043591602435916044359067ffffffffffffffff82116117ae57611ca191600401611c40565b9091565b9190602083019260058210156116b25752565b92919267ffffffffffffffff8211611b295760405191611ce2601f8201601f191660200184611b5a565b8294818452818301116117ae578281602093845f960137010152565b9080601f830112156117ae57816020611d1993359101611cb8565b90565b67ffffffffffffffff8111611b295760051b60200190565b15611d3b57565b60405162461bcd60e51b815260206004820152601660248201527f436f6d6d656e7420646f6573206e6f74206578697374000000000000000000006044820152606490fd5b15611d8757565b60405162461bcd60e51b815260206004820152601360248201527f506f737420646f6573206e6f74206578697374000000000000000000000000006044820152606490fd5b8054821015611de1575f5260205f2001905f90565b634e487b7160e01b5f52603260045260245ffd5b15611dfc57565b60405162461bcd60e51b815260206004820152601560248201527f496e76616c6964207265616374696f6e207479706500000000000000000000006044820152606490fd5b5f198114611e4f5760010190565b634e487b7160e01b5f52601160045260245ffd5b818110611e6e575050565b5f8155600101611e63565b90611e876002548310611d80565b60058110156116b257611e9f600560ff831610611df5565b80611eb657505f525f602052600460405f20015490565b60018103611ed057505f525f602052600560405f20015490565b60028103611eea57505f525f602052600660405f20015490565b600303611f02575f525f602052600760405f20015490565b5f525f602052600860405f20015490565b611f76916020916001600160a01b037f9e7b61f58c47dc699ac88507c4f5bb9f121c03808c5676a8078fe583e46497015416905f60405180968195829463045fc19560e11b84526004840152336024840152608060448401526084830190611c1c565b6004606483015203925af1908115612002575f9161200d575b506001600160a01b037f9e7b61f58c47dc699ac88507c4f5bb9f121c03808c5676a8078fe583e46497005416803b156117ae57604051630f8e573b60e21b815260048101839052336024820152905f908290604490829084905af1801561200257611ff8575090565b5f611d1991611b5a565b6040513d5f823e3d90fd5b90506020813d602011612037575b8161202860209383611b5a565b810103126117ae57515f611f8f565b3d915061201b565b919060058110156116b25780612079575061206890825f525f602052600460405f200154612143565b905f525f602052600460405f200155565b600181036120ab575061209a90825f525f602052600560405f200154612143565b905f525f602052600560405f200155565b600281036120dd57506120cc90825f525f602052600660405f200154612143565b905f525f602052600660405f200155565b6003810361210f57506120fe90825f525f602052600760405f200154612143565b905f525f602052600760405f200155565b60041461211a575050565b61213290825f525f602052600860405f200154612143565b905f525f602052600860405f200155565b9081156121fa575b80156121e8575b60209060646001600160a01b037f9e7b61f58c47dc699ac88507c4f5bb9f121c03808c5676a8078fe583e46497015416935f60405195869485936303056db360e31b8552600485015260248401528160448401525af1908115612002575f916121b9575090565b90506020813d6020116121e0575b816121d460209383611b5a565b810103126117ae575190565b3d91506121c7565b5060206121f3612354565b9050612152565b9050612204612354565b9061214b565b908115612292575b8015612280575b60209060646001600160a01b037f9e7b61f58c47dc699ac88507c4f5bb9f121c03808c5676a8078fe583e46497015416935f604051958694859363022f65e760e31b8552600485015260248401528160448401525af1908115612002575f916121b9575090565b50602061228b612354565b9050612219565b905061229c612354565b90612212565b90611bb4915f525f602052600960405f206122cd83600483016122c7815430906123b5565b546123b5565b6122e083600583016122c73082546123b5565b6122f383600683016122c73082546123b5565b61230683600783016122c73082546123b5565b61231983600883016122c73082546123b5565b016122c73082546123b5565b4660010361233257600190565b4662aa36a7036123425761271190565b617a69461461234f575f90565b5f1990565b5f60206001600160a01b037f9e7b61f58c47dc699ac88507c4f5bb9f121c03808c5676a8078fe583e46497015416604460405180948193639cd07acb60e01b8352816004840152600460248401525af1908115612002575f916121b9575090565b6001600160a01b037f9e7b61f58c47dc699ac88507c4f5bb9f121c03808c5676a8078fe583e4649700541691823b156117ae57604051635ca4b5b160e11b815260048101929092526001600160a01b03166024820152905f908290604490829084905af18015612002576124265750565b5f611bb491611b5a56fea164736f6c634300081b000a",
  "devdoc": {
    "details": "All interaction counts are encrypted using FHEVM, only post authors can decrypt",
    "kind": "dev",
    "methods": {
      "addComment(uint256,uint256,bytes32[],bytes,bytes32,bytes)": {
        "params": {
          "contentProof": "The proof for encrypted content",
          "countInputEuint32": "The encrypted input value for incrementing comment count (should be 1)",
          "countInputProof": "The input proof for count",
          "encryptedContentChunks": "The encrypted comment content chunks",
          "parentCommentId": "The ID of parent comment (0 for top-level)",
          "postId": "The ID of the post"
        }
      },
      "addCommentLike(uint256,bytes32,bytes)": {
        "params": {
          "commentId": "The ID of the comment",
          "inputEuint32": "The encrypted input value (should be 1)",
          "inputProof": "The input proof"
        }
      },
      "addLike(uint256,bytes32,bytes)": {
        "params": {
          "inputEuint32": "The encrypted input value (should be 1)",
          "inputProof": "The input proof",
          "postId": "The ID of the post to like"
        }
      },
      "addReaction(uint256,uint8,bytes32,bytes)": {
        "params": {
          "inputEuint32": "The encrypted input value (should be 1)",
          "inputProof": "The input proof",
          "postId": "The ID of the post",
          "reactionType": "The type of reaction (0-4)"
        }
      },
      "createPost(string,string,string[])": {
        "params": {
          "category": "The category of the post",
          "content": "The content of the post",
          "tags": "Array of tags for the post"
        },
        "returns": {
          "_0": "postId The ID of the newly created post"
        }
      },
      "getCategoryReactionCount(string)": {
        "params": {
          "category": "The category name"
        },
        "returns": {
          "_0": "The encrypted total reaction count for the category"
        }
      },
      "getComment(uint256)": {
        "params": {
          "commentId": "The ID of the comment"
        },
        "returns": {
          "author": "The address of the comment author",
          "parentCommentId": "The ID of parent comment (0 for top-level)",
          "postId": "The ID of the post",
          "timestamp": "The timestamp when the comment was created"
        }
      },
      "getCommentContentChunk(uint256,uint256)": {
        "params": {
          "commentId": "The ID of the comment",
          "index": "The chunk index"
        },
        "returns": {
          "_0": "The encrypted content chunk"
        }
      },
      "getCommentContentChunkCount(uint256)": {
        "params": {
          "commentId": "The ID of the comment"
        }
      },
      "getCommentCount()": {
        "returns": {
          "_0": "The total number of comments"
        }
      },
      "getCommentCount(uint256)": {
        "params": {
          "postId": "The ID of the post"
        },
        "returns": {
          "_0": "The encrypted comment count"
        }
      },
      "getLikeCount(uint256)": {
        "params": {
          "postId": "The ID of the post"
        },
        "returns": {
          "_0": "The encrypted like count"
        }
      },
      "getPost(uint256)": {
        "params": {
          "postId": "The ID of the post"
        },
        "returns": {
          "author": "The address of the post author",
          "category": "The category of the post",
          "content": "The content of the post",
          "tags": "The tags of the post",
          "timestamp": "The timestamp when the post was created"
        }
      },
      "getPostCount()": {
        "returns": {
          "_0": "The total number of posts"
        }
      },
      "getReactionCount(uint256,uint8)": {
        "params": {
          "postId": "The ID of the post",
          "reactionType": "The type of reaction (0-4)"
        },
        "returns": {
          "_0": "The encrypted reaction count"
        }
      },
      "getUserReaction(address,uint256)": {
        "params": {
          "postId": "The ID of the post",
          "user": "The user address"
        },
        "returns": {
          "_0": "The reaction type (0 = No reaction)"
        }
      },
      "removeReaction(uint256,bytes32,bytes)": {
        "params": {
          "inputEuint32": "The encrypted input value (should be 1)",
          "inputProof": "The input proof",
          "postId": "The ID of the post"
        }
      }
    },
    "stateVariables": {
      "userReactions": {
        "details": "Tracks user's current reaction to each post. Default value is Like (0), so we use a separate mapping to track if user has reacted"
      }
    },
    "title": "EncryptedLike - A decentralized social like system with fully encrypted interactions",
    "version": 1
  },
  "userdoc": {
    "errors": {
      "ZamaProtocolUnsupported()": [
        {
          "notice": "Returned if the Zama protocol is not supported on the current chain"
        }
      ]
    },
    "events": {
      "CommentAdded(uint256,uint256,address,uint256)": {
        "notice": "Event emitted when a comment is added"
      },
      "CommentLiked(uint256,address)": {
        "notice": "Event emitted when a comment is liked"
      },
      "PostCreated(uint256,address,string,string)": {
        "notice": "Event emitted when a new post is created"
      },
      "ReactionChanged(uint256,address,uint8)": {
        "notice": "Event emitted when a reaction is added/changed to a post"
      },
      "ReactionRemoved(uint256,address)": {
        "notice": "Event emitted when a reaction is removed from a post"
      }
    },
    "kind": "user",
    "methods": {
      "addComment(uint256,uint256,bytes32[],bytes,bytes32,bytes)": {
        "notice": "Add an encrypted comment to a post"
      },
      "addCommentLike(uint256,bytes32,bytes)": {
        "notice": "Add a like to a comment"
      },
      "addLike(uint256,bytes32,bytes)": {
        "notice": "Add an encrypted like to a post (legacy function)"
      },
      "addReaction(uint256,uint8,bytes32,bytes)": {
        "notice": "Add or change a reaction to a post"
      },
      "categoryReactionCounts(bytes32)": {
        "notice": "Mapping from category hash (keccak256(bytes(category))) to encrypted total reaction counts"
      },
      "commentCount()": {
        "notice": "Total number of comments"
      },
      "comments(uint256)": {
        "notice": "Mapping from comment ID to Comment"
      },
      "createPost(string,string,string[])": {
        "notice": "Create a new post"
      },
      "getCategoryReactionCount(string)": {
        "notice": "Get encrypted category reaction count"
      },
      "getComment(uint256)": {
        "notice": "Get comment information"
      },
      "getCommentContentChunk(uint256,uint256)": {
        "notice": "Get one encrypted content chunk for a comment"
      },
      "getCommentContentChunkCount(uint256)": {
        "notice": "Get number of encrypted content chunks for a comment"
      },
      "getCommentCount()": {
        "notice": "Get the total number of comments"
      },
      "getCommentCount(uint256)": {
        "notice": "Get the encrypted comment count for a post"
      },
      "getLikeCount(uint256)": {
        "notice": "Get the encrypted like count for a post (legacy function)"
      },
      "getPost(uint256)": {
        "notice": "Get post information"
      },
      "getPostCount()": {
        "notice": "Get the total number of posts"
      },
      "getReactionCount(uint256,uint8)": {
        "notice": "Get the encrypted reaction count for a post"
      },
      "getUserReaction(address,uint256)": {
        "notice": "Get user's reaction to a post"
      },
      "postAuthors(uint256)": {
        "notice": "Mapping from post ID to author address (for ACL permissions)"
      },
      "postCount()": {
        "notice": "Total number of posts"
      },
      "posts(uint256)": {
        "notice": "Mapping from post ID to Post"
      },
      "removeReaction(uint256,bytes32,bytes)": {
        "notice": "Remove a reaction from a post"
      },
      "userReactions(address,uint256)": {
        "notice": "Mapping from user address => post ID => reaction type"
      }
    },
    "notice": "This contract allows users to create posts with reactions, comments, and categories",
    "version": 1
  },
  "storageLayout": {
    "storage": [
      {
        "astId": 39243,
        "contract": "contracts/EncryptedLike.sol:EncryptedLike",
        "label": "posts",
        "offset": 0,
        "slot": "0",
        "type": "t_mapping(t_uint256,t_struct(Post)39220_storage)"
      },
      {
        "astId": 39249,
        "contract": "contracts/EncryptedLike.sol:EncryptedLike",
        "label": "comments",
        "offset": 0,
        "slot": "1",
        "type": "t_mapping(t_uint256,t_struct(Comment)39237_storage)"
      },
      {
        "astId": 39252,
        "contract": "contracts/EncryptedLike.sol:EncryptedLike",
        "label": "postCount",
        "offset": 0,
        "slot": "2",
        "type": "t_uint256"
      },
      {
        "astId": 39255,
        "contract": "contracts/EncryptedLike.sol:EncryptedLike",
        "label": "commentCount",
        "offset": 0,
        "slot": "3",
        "type": "t_uint256"
      },
      {
        "astId": 39260,
        "contract": "contracts/EncryptedLike.sol:EncryptedLike",
        "label": "postAuthors",
        "offset": 0,
        "slot": "4",
        "type": "t_mapping(t_uint256,t_address)"
      },
      {
        "astId": 39268,
        "contract": "contracts/EncryptedLike.sol:EncryptedLike",
        "label": "userReactions",
        "offset": 0,
        "slot": "5",
        "type": "t_mapping(t_address,t_mapping(t_uint256,t_enum(ReactionType)39189))"
      },
      {
        "astId": 39274,
        "contract": "contracts/EncryptedLike.sol:EncryptedLike",
        "label": "hasUserReacted",
        "offset": 0,
        "slot": "6",
        "type": "t_mapping(t_address,t_mapping(t_uint256,t_bool))"
      },
      {
        "astId": 39280,
        "contract": "contracts/EncryptedLike.sol:EncryptedLike",
        "label": "categoryReactionCounts",
        "offset": 0,
        "slot": "7",
        "type": "t_mapping(t_bytes32,t_userDefinedValueType(euint32)40687)"
      },
      {
        "astId": 39285,
        "contract": "contracts/EncryptedLike.sol:EncryptedLike",
        "label": "categoryInitialized",
        "offset": 0,
        "slot": "8",
        "type": "t_mapping(t_bytes32,t_bool)"
      }
    ],
    "types": {
      "t_address": {
        "encoding": "inplace",
        "label": "address",
        "numberOfBytes": "20"
      },
      "t_array(t_string_storage)dyn_storage": {
        "base": "t_string_storage",
        "encoding": "dynamic_array",
        "label": "string[]",
        "numberOfBytes": "32"
      },
      "t_array(t_userDefinedValueType(euint32)40687)dyn_storage": {
        "base": "t_userDefinedValueType(euint32)40687",
        "encoding": "dynamic_array",
        "label": "euint32[]",
        "numberOfBytes": "32"
      },
      "t_bool": {
        "encoding": "inplace",
        "label": "bool",
        "numberOfBytes": "1"
      },
      "t_bytes32": {
        "encoding": "inplace",
        "label": "bytes32",
        "numberOfBytes": "32"
      },
      "t_enum(ReactionType)39189": {
        "encoding": "inplace",
        "label": "enum EncryptedLike.ReactionType",
        "numberOfBytes": "1"
      },
      "t_mapping(t_address,t_mapping(t_uint256,t_bool))": {
        "encoding": "mapping",
        "key": "t_address",
        "label": "mapping(address => mapping(uint256 => bool))",
        "numberOfBytes": "32",
        "value": "t_mapping(t_uint256,t_bool)"
      },
      "t_mapping(t_address,t_mapping(t_uint256,t_enum(ReactionType)39189))": {
        "encoding": "mapping",
        "key": "t_address",
        "label": "mapping(address => mapping(uint256 => enum EncryptedLike.ReactionType))",
        "numberOfBytes": "32",
        "value": "t_mapping(t_uint256,t_enum(ReactionType)39189)"
      },
      "t_mapping(t_bytes32,t_bool)": {
        "encoding": "mapping",
        "key": "t_bytes32",
        "label": "mapping(bytes32 => bool)",
        "numberOfBytes": "32",
        "value": "t_bool"
      },
      "t_mapping(t_bytes32,t_userDefinedValueType(euint32)40687)": {
        "encoding": "mapping",
        "key": "t_bytes32",
        "label": "mapping(bytes32 => euint32)",
        "numberOfBytes": "32",
        "value": "t_userDefinedValueType(euint32)40687"
      },
      "t_mapping(t_uint256,t_address)": {
        "encoding": "mapping",
        "key": "t_uint256",
        "label": "mapping(uint256 => address)",
        "numberOfBytes": "32",
        "value": "t_address"
      },
      "t_mapping(t_uint256,t_bool)": {
        "encoding": "mapping",
        "key": "t_uint256",
        "label": "mapping(uint256 => bool)",
        "numberOfBytes": "32",
        "value": "t_bool"
      },
      "t_mapping(t_uint256,t_enum(ReactionType)39189)": {
        "encoding": "mapping",
        "key": "t_uint256",
        "label": "mapping(uint256 => enum EncryptedLike.ReactionType)",
        "numberOfBytes": "32",
        "value": "t_enum(ReactionType)39189"
      },
      "t_mapping(t_uint256,t_struct(Comment)39237_storage)": {
        "encoding": "mapping",
        "key": "t_uint256",
        "label": "mapping(uint256 => struct EncryptedLike.Comment)",
        "numberOfBytes": "32",
        "value": "t_struct(Comment)39237_storage"
      },
      "t_mapping(t_uint256,t_struct(Post)39220_storage)": {
        "encoding": "mapping",
        "key": "t_uint256",
        "label": "mapping(uint256 => struct EncryptedLike.Post)",
        "numberOfBytes": "32",
        "value": "t_struct(Post)39220_storage"
      },
      "t_string_storage": {
        "encoding": "bytes",
        "label": "string",
        "numberOfBytes": "32"
      },
      "t_struct(Comment)39237_storage": {
        "encoding": "inplace",
        "label": "struct EncryptedLike.Comment",
        "members": [
          {
            "astId": 39223,
            "contract": "contracts/EncryptedLike.sol:EncryptedLike",
            "label": "author",
            "offset": 0,
            "slot": "0",
            "type": "t_address"
          },
          {
            "astId": 39227,
            "contract": "contracts/EncryptedLike.sol:EncryptedLike",
            "label": "encryptedContent",
            "offset": 0,
            "slot": "1",
            "type": "t_array(t_userDefinedValueType(euint32)40687)dyn_storage"
          },
          {
            "astId": 39229,
            "contract": "contracts/EncryptedLike.sol:EncryptedLike",
            "label": "postId",
            "offset": 0,
            "slot": "2",
            "type": "t_uint256"
          },
          {
            "astId": 39231,
            "contract": "contracts/EncryptedLike.sol:EncryptedLike",
            "label": "parentCommentId",
            "offset": 0,
            "slot": "3",
            "type": "t_uint256"
          },
          {
            "astId": 39233,
            "contract": "contracts/EncryptedLike.sol:EncryptedLike",
            "label": "timestamp",
            "offset": 0,
            "slot": "4",
            "type": "t_uint256"
          },
          {
            "astId": 39236,
            "contract": "contracts/EncryptedLike.sol:EncryptedLike",
            "label": "encryptedLikeCount",
            "offset": 0,
            "slot": "5",
            "type": "t_userDefinedValueType(euint32)40687"
          }
        ],
        "numberOfBytes": "192"
      },
      "t_struct(Post)39220_storage": {
        "encoding": "inplace",
        "label": "struct EncryptedLike.Post",
        "members": [
          {
            "astId": 39192,
            "contract": "contracts/EncryptedLike.sol:EncryptedLike",
            "label": "author",
            "offset": 0,
            "slot": "0",
            "type": "t_address"
          },
          {
            "astId": 39194,
            "contract": "contracts/EncryptedLike.sol:EncryptedLike",
            "label": "content",
            "offset": 0,
            "slot": "1",
            "type": "t_string_storage"
          },
          {
            "astId": 39196,
            "contract": "contracts/EncryptedLike.sol:EncryptedLike",
            "label": "category",
            "offset": 0,
            "slot": "2",
            "type": "t_string_storage"
          },
          {
            "astId": 39199,
            "contract": "contracts/EncryptedLike.sol:EncryptedLike",
            "label": "tags",
            "offset": 0,
            "slot": "3",
            "type": "t_array(t_string_storage)dyn_storage"
          },
          {
            "astId": 39202,
            "contract": "contracts/EncryptedLike.sol:EncryptedLike",
            "label": "encryptedLikeCount",
            "offset": 0,
            "slot": "4",
            "type": "t_userDefinedValueType(euint32)40687"
          },
          {
            "astId": 39205,
            "contract": "contracts/EncryptedLike.sol:EncryptedLike",
            "label": "encryptedLoveCount",
            "offset": 0,
            "slot": "5",
            "type": "t_userDefinedValueType(euint32)40687"
          },
          {
            "astId": 39208,
            "contract": "contracts/EncryptedLike.sol:EncryptedLike",
            "label": "encryptedClapCount",
            "offset": 0,
            "slot": "6",
            "type": "t_userDefinedValueType(euint32)40687"
          },
          {
            "astId": 39211,
            "contract": "contracts/EncryptedLike.sol:EncryptedLike",
            "label": "encryptedCelebrateCount",
            "offset": 0,
            "slot": "7",
            "type": "t_userDefinedValueType(euint32)40687"
          },
          {
            "astId": 39214,
            "contract": "contracts/EncryptedLike.sol:EncryptedLike",
            "label": "encryptedIdeaCount",
            "offset": 0,
            "slot": "8",
            "type": "t_userDefinedValueType(euint32)40687"
          },
          {
            "astId": 39217,
            "contract": "contracts/EncryptedLike.sol:EncryptedLike",
            "label": "encryptedCommentCount",
            "offset": 0,
            "slot": "9",
            "type": "t_userDefinedValueType(euint32)40687"
          },
          {
            "astId": 39219,
            "contract": "contracts/EncryptedLike.sol:EncryptedLike",
            "label": "timestamp",
            "offset": 0,
            "slot": "10",
            "type": "t_uint256"
          }
        ],
        "numberOfBytes": "352"
      },
      "t_uint256": {
        "encoding": "inplace",
        "label": "uint256",
        "numberOfBytes": "32"
      },
      "t_userDefinedValueType(euint32)40687": {
        "encoding": "inplace",
        "label": "euint32",
        "numberOfBytes": "32"
      }
    }
  }
}